:100000000C942A000C943F000C943F000C943F0089
:100010000C943F000C943F000C943F000C943F0064
:100020000C943F000C943F000C943F000C943F0054
:100030000C943F000C943F000C943F000C943F0044
:100040000C943F000C943F000C943F000C943F0034
:100050000C943F0011241FBECFE5D8E0DEBFCDBF1A
:1000600010E0A0E6B0E0ECE9F2E002C005900D92ED
:10007000A638B107D9F70E94CE000C944C010C941D
:10008000000092B39D7F92BB92B39E7F92BB8BBBCD
:1000900082B3816082BB8AE08A95F1F700C082B3A7
:1000A0008E7F82BB8FE891E00197F1F700C00000DE
:1000B000089592B3926092BB92B39E7F92BB8BBB2A
:1000C00082B3816082BB8AE08A95F1F700C082B377
:1000D0008E7F82BB8FE891E00197F1F700C00000AE
:1000E00008958FE59AEE0197F1F700C0000080E3D4
:1000F0000E9441008FE090E40197F1F700C00000FA
:1001000080E30E9441008FE891E00197F1F700C081
:10011000000080E30E94410088E30E94410088E0E3
:100120000E94410081E00E94410086E00E9441005F
:100130008CE00E94410008959FEF980F923060F488
:100140009FEF960F903140F4823011F49FE3960FA9
:10015000892F80680E9441000895CF93DF93EC01BE
:1001600003C021960E94590088818111FACFDF9146
:10017000CF91089590B3982371F42FE738E341E0CD
:10018000215030404040E1F700C0000020B38223FE
:1001900019F491E001C090E0892F08958AB38FEFA0
:1001A0008ABB9BB39BBB91B3936091BB92B39D7F82
:1001B00092BB92B39E7F92BB8ABB1BBA97B39E60E1
:1001C00097BB98B3986098BB92B3906192BB91B380
:1001D0009F7E91BB9FB590689FBD9FB592609FBD6C
:1001E0009EB598619EBD21EE34E037BD26BD2EE35D
:1001F00030E03BBD2ABD90E291BB9EB594609EBDB0
:1002000087BB84BB789480E10E94BA00882311F0F8
:10021000C1E001C0C0E0C1111BC088B38B7F88BBA7
:1002200088B3826088BB80E185BB2FEF81EE94E0CC
:10023000215080409040E1F700C000000E94710012
:1002400062E081E00E949C0080E690E00E94AD00A8
:10025000C130C9F688B38D7F88BB88B38B7F88BBDC
:1002600080E285BB2FEF81EE94E0215080409040EA
:10027000E1F700C0000062E081E00E949C0081E79D
:1002800090E00E94AD0062E082E00E949C008FE757
:0C02900090E00E94AD00B7CFF894FFCFC3
:10029C00537A65726F6B69656A2064726F67692146
:1002AC000050726F737A6520706F627261630062C6
:0602BC00696C657400008E
:00000001FF
